{
  "_format": "hh-sol-artifact-1",
  "contractName": "TradeHub",
  "sourceName": "contracts/tradehub/TradeHub.sol",
  "abi": [
    {
      "inputs": [
        {
          "internalType": "uint96",
          "name": "_platformFee",
          "type": "uint96"
        },
        {
          "internalType": "string",
          "name": "_name",
          "type": "string"
        },
        {
          "internalType": "address",
          "name": "flowContract",
          "type": "address"
        }
      ],
      "stateMutability": "nonpayable",
      "type": "constructor"
    },
    {
      "inputs": [],
      "name": "ItemExist",
      "type": "error"
    },
    {
      "anonymous": false,
      "inputs": [
        {
          "indexed": true,
          "internalType": "uint256",
          "name": "auctionId",
          "type": "uint256"
        },
        {
          "indexed": true,
          "internalType": "address",
          "name": "nftContract",
          "type": "address"
        },
        {
          "indexed": true,
          "internalType": "uint256",
          "name": "tokenId",
          "type": "uint256"
        },
        {
          "indexed": false,
          "internalType": "string",
          "name": "metadataURI",
          "type": "string"
        },
        {
          "indexed": false,
          "internalType": "address",
          "name": "auctioneer",
          "type": "address"
        },
        {
          "indexed": false,
          "internalType": "address",
          "name": "highestBidder",
          "type": "address"
        },
        {
          "indexed": false,
          "internalType": "uint256",
          "name": "bid",
          "type": "uint256"
        }
      ],
      "name": "AuctionEnded",
      "type": "event"
    },
    {
      "anonymous": false,
      "inputs": [
        {
          "indexed": false,
          "internalType": "uint256",
          "name": "itemId",
          "type": "uint256"
        },
        {
          "indexed": true,
          "internalType": "address",
          "name": "nftContract",
          "type": "address"
        },
        {
          "indexed": true,
          "internalType": "uint256",
          "name": "tokenId",
          "type": "uint256"
        },
        {
          "indexed": false,
          "internalType": "string",
          "name": "metaDataURI",
          "type": "string"
        },
        {
          "indexed": true,
          "internalType": "address",
          "name": "auctioneer",
          "type": "address"
        },
        {
          "indexed": false,
          "internalType": "uint256",
          "name": "basePrice",
          "type": "uint256"
        },
        {
          "indexed": false,
          "internalType": "uint256",
          "name": "endTime",
          "type": "uint256"
        }
      ],
      "name": "AuctionStarted",
      "type": "event"
    },
    {
      "anonymous": false,
      "inputs": [
        {
          "indexed": false,
          "internalType": "uint256",
          "name": "itemId",
          "type": "uint256"
        },
        {
          "indexed": false,
          "internalType": "uint256",
          "name": "amount",
          "type": "uint256"
        },
        {
          "indexed": true,
          "internalType": "address",
          "name": "bidder",
          "type": "address"
        }
      ],
      "name": "BidPlaced",
      "type": "event"
    },
    {
      "anonymous": false,
      "inputs": [
        {
          "indexed": false,
          "internalType": "uint256",
          "name": "itemId",
          "type": "uint256"
        },
        {
          "indexed": true,
          "internalType": "address",
          "name": "nftContract",
          "type": "address"
        },
        {
          "indexed": true,
          "internalType": "uint256",
          "name": "tokenId",
          "type": "uint256"
        },
        {
          "indexed": false,
          "internalType": "string",
          "name": "metaDataURI",
          "type": "string"
        },
        {
          "indexed": false,
          "internalType": "address",
          "name": "seller",
          "type": "address"
        }
      ],
      "name": "ItemRemoved",
      "type": "event"
    },
    {
      "anonymous": false,
      "inputs": [
        {
          "indexed": true,
          "internalType": "uint256",
          "name": "itemId",
          "type": "uint256"
        },
        {
          "indexed": true,
          "internalType": "address",
          "name": "nftContract",
          "type": "address"
        },
        {
          "indexed": true,
          "internalType": "uint256",
          "name": "tokenId",
          "type": "uint256"
        },
        {
          "indexed": false,
          "internalType": "string",
          "name": "metadataURI",
          "type": "string"
        },
        {
          "indexed": false,
          "internalType": "address",
          "name": "seller",
          "type": "address"
        },
        {
          "indexed": false,
          "internalType": "address",
          "name": "buyer",
          "type": "address"
        },
        {
          "indexed": false,
          "internalType": "uint256",
          "name": "price",
          "type": "uint256"
        },
        {
          "indexed": false,
          "internalType": "uint256",
          "name": "quantity",
          "type": "uint256"
        }
      ],
      "name": "ItemSold",
      "type": "event"
    },
    {
      "anonymous": false,
      "inputs": [
        {
          "indexed": false,
          "internalType": "uint256",
          "name": "itemId",
          "type": "uint256"
        },
        {
          "indexed": false,
          "internalType": "uint256",
          "name": "updatedPrice",
          "type": "uint256"
        }
      ],
      "name": "PriceUpdated",
      "type": "event"
    },
    {
      "anonymous": false,
      "inputs": [
        {
          "indexed": true,
          "internalType": "uint256",
          "name": "itemId",
          "type": "uint256"
        },
        {
          "indexed": true,
          "internalType": "address",
          "name": "nftContract",
          "type": "address"
        },
        {
          "indexed": true,
          "internalType": "uint256",
          "name": "tokenId",
          "type": "uint256"
        },
        {
          "indexed": false,
          "internalType": "string",
          "name": "metaDataURI",
          "type": "string"
        },
        {
          "indexed": false,
          "internalType": "address",
          "name": "seller",
          "type": "address"
        },
        {
          "indexed": false,
          "internalType": "uint256",
          "name": "price",
          "type": "uint256"
        }
      ],
      "name": "SaleStarted",
      "type": "event"
    },
    {
      "anonymous": false,
      "inputs": [
        {
          "indexed": false,
          "internalType": "uint256",
          "name": "itemId",
          "type": "uint256"
        },
        {
          "indexed": false,
          "internalType": "uint256",
          "name": "updatedTime",
          "type": "uint256"
        }
      ],
      "name": "TimeUpdated",
      "type": "event"
    },
    {
      "inputs": [
        {
          "internalType": "uint256",
          "name": "itemId",
          "type": "uint256"
        }
      ],
      "name": "acceptBidAndEndAuction",
      "outputs": [],
      "stateMutability": "nonpayable",
      "type": "function"
    },
    {
      "inputs": [],
      "name": "accessMasterAddress",
      "outputs": [
        {
          "internalType": "address",
          "name": "",
          "type": "address"
        }
      ],
      "stateMutability": "view",
      "type": "function"
    },
    {
      "inputs": [
        {
          "internalType": "uint256",
          "name": "itemId",
          "type": "uint256"
        },
        {
          "internalType": "uint256",
          "name": "quantity",
          "type": "uint256"
        }
      ],
      "name": "buyItem",
      "outputs": [],
      "stateMutability": "payable",
      "type": "function"
    },
    {
      "inputs": [
        {
          "internalType": "uint96",
          "name": "newPlatformFee",
          "type": "uint96"
        }
      ],
      "name": "changeFee",
      "outputs": [],
      "stateMutability": "nonpayable",
      "type": "function"
    },
    {
      "inputs": [
        {
          "internalType": "uint256",
          "name": "itemId",
          "type": "uint256"
        }
      ],
      "name": "concludeAuction",
      "outputs": [],
      "stateMutability": "nonpayable",
      "type": "function"
    },
    {
      "inputs": [
        {
          "internalType": "uint256",
          "name": "",
          "type": "uint256"
        }
      ],
      "name": "idToMarketItem",
      "outputs": [
        {
          "internalType": "uint256",
          "name": "itemId",
          "type": "uint256"
        },
        {
          "internalType": "address",
          "name": "nftContract",
          "type": "address"
        },
        {
          "internalType": "uint256",
          "name": "tokenId",
          "type": "uint256"
        },
        {
          "internalType": "address",
          "name": "seller",
          "type": "address"
        },
        {
          "internalType": "uint256",
          "name": "price",
          "type": "uint256"
        },
        {
          "internalType": "uint256",
          "name": "supply",
          "type": "uint256"
        },
        {
          "internalType": "uint256",
          "name": "auctioneEndTime",
          "type": "uint256"
        },
        {
          "internalType": "uint256",
          "name": "highestBid",
          "type": "uint256"
        },
        {
          "internalType": "address",
          "name": "highestBidder",
          "type": "address"
        },
        {
          "internalType": "enum TradeHub.ItemStatus",
          "name": "status",
          "type": "uint8"
        }
      ],
      "stateMutability": "view",
      "type": "function"
    },
    {
      "inputs": [
        {
          "internalType": "address",
          "name": "nftContract",
          "type": "address"
        },
        {
          "internalType": "uint256",
          "name": "tokenId",
          "type": "uint256"
        },
        {
          "internalType": "uint256",
          "name": "price",
          "type": "uint256"
        },
        {
          "internalType": "uint256",
          "name": "quantity",
          "type": "uint256"
        },
        {
          "internalType": "bool",
          "name": "forAuction",
          "type": "bool"
        },
        {
          "internalType": "uint256",
          "name": "time",
          "type": "uint256"
        }
      ],
      "name": "listItem",
      "outputs": [
        {
          "internalType": "uint256",
          "name": "itemId",
          "type": "uint256"
        }
      ],
      "stateMutability": "nonpayable",
      "type": "function"
    },
    {
      "inputs": [
        {
          "internalType": "address",
          "name": "",
          "type": "address"
        },
        {
          "internalType": "address",
          "name": "",
          "type": "address"
        },
        {
          "internalType": "uint256",
          "name": "",
          "type": "uint256"
        }
      ],
      "name": "marketItemERC1155",
      "outputs": [
        {
          "internalType": "uint256",
          "name": "",
          "type": "uint256"
        }
      ],
      "stateMutability": "view",
      "type": "function"
    },
    {
      "inputs": [
        {
          "internalType": "address",
          "name": "",
          "type": "address"
        },
        {
          "internalType": "uint256",
          "name": "",
          "type": "uint256"
        }
      ],
      "name": "marketItemERC721",
      "outputs": [
        {
          "internalType": "uint256",
          "name": "",
          "type": "uint256"
        }
      ],
      "stateMutability": "view",
      "type": "function"
    },
    {
      "inputs": [],
      "name": "name",
      "outputs": [
        {
          "internalType": "string",
          "name": "",
          "type": "string"
        }
      ],
      "stateMutability": "view",
      "type": "function"
    },
    {
      "inputs": [
        {
          "internalType": "address",
          "name": "",
          "type": "address"
        },
        {
          "internalType": "address",
          "name": "",
          "type": "address"
        },
        {
          "internalType": "uint256[]",
          "name": "",
          "type": "uint256[]"
        },
        {
          "internalType": "uint256[]",
          "name": "",
          "type": "uint256[]"
        },
        {
          "internalType": "bytes",
          "name": "",
          "type": "bytes"
        }
      ],
      "name": "onERC1155BatchReceived",
      "outputs": [
        {
          "internalType": "bytes4",
          "name": "",
          "type": "bytes4"
        }
      ],
      "stateMutability": "nonpayable",
      "type": "function"
    },
    {
      "inputs": [
        {
          "internalType": "address",
          "name": "",
          "type": "address"
        },
        {
          "internalType": "address",
          "name": "",
          "type": "address"
        },
        {
          "internalType": "uint256",
          "name": "",
          "type": "uint256"
        },
        {
          "internalType": "uint256",
          "name": "",
          "type": "uint256"
        },
        {
          "internalType": "bytes",
          "name": "",
          "type": "bytes"
        }
      ],
      "name": "onERC1155Received",
      "outputs": [
        {
          "internalType": "bytes4",
          "name": "",
          "type": "bytes4"
        }
      ],
      "stateMutability": "nonpayable",
      "type": "function"
    },
    {
      "inputs": [
        {
          "internalType": "address",
          "name": "",
          "type": "address"
        },
        {
          "internalType": "address",
          "name": "",
          "type": "address"
        },
        {
          "internalType": "uint256",
          "name": "",
          "type": "uint256"
        },
        {
          "internalType": "bytes",
          "name": "",
          "type": "bytes"
        }
      ],
      "name": "onERC721Received",
      "outputs": [
        {
          "internalType": "bytes4",
          "name": "",
          "type": "bytes4"
        }
      ],
      "stateMutability": "nonpayable",
      "type": "function"
    },
    {
      "inputs": [
        {
          "internalType": "uint256",
          "name": "itemId",
          "type": "uint256"
        }
      ],
      "name": "placeBid",
      "outputs": [],
      "stateMutability": "payable",
      "type": "function"
    },
    {
      "inputs": [],
      "name": "platformFeeBasisPoint",
      "outputs": [
        {
          "internalType": "uint96",
          "name": "",
          "type": "uint96"
        }
      ],
      "stateMutability": "view",
      "type": "function"
    },
    {
      "inputs": [
        {
          "internalType": "uint256",
          "name": "itemId",
          "type": "uint256"
        }
      ],
      "name": "removeItem",
      "outputs": [],
      "stateMutability": "nonpayable",
      "type": "function"
    },
    {
      "inputs": [
        {
          "internalType": "uint256",
          "name": "_tokenId",
          "type": "uint256"
        },
        {
          "internalType": "uint256",
          "name": "_salePrice",
          "type": "uint256"
        }
      ],
      "name": "royaltyInfo",
      "outputs": [
        {
          "internalType": "address",
          "name": "",
          "type": "address"
        },
        {
          "internalType": "uint256",
          "name": "",
          "type": "uint256"
        }
      ],
      "stateMutability": "view",
      "type": "function"
    },
    {
      "inputs": [
        {
          "internalType": "uint256",
          "name": "itemId",
          "type": "uint256"
        },
        {
          "internalType": "uint256",
          "name": "time",
          "type": "uint256"
        }
      ],
      "name": "startAuction",
      "outputs": [],
      "stateMutability": "nonpayable",
      "type": "function"
    },
    {
      "inputs": [
        {
          "internalType": "bytes4",
          "name": "interfaceId",
          "type": "bytes4"
        }
      ],
      "name": "supportsInterface",
      "outputs": [
        {
          "internalType": "bool",
          "name": "",
          "type": "bool"
        }
      ],
      "stateMutability": "view",
      "type": "function"
    },
    {
      "inputs": [
        {
          "internalType": "uint256",
          "name": "itemId",
          "type": "uint256"
        },
        {
          "internalType": "uint256",
          "name": "time",
          "type": "uint256"
        }
      ],
      "name": "updateAuctionTime",
      "outputs": [
        {
          "internalType": "uint256",
          "name": "",
          "type": "uint256"
        }
      ],
      "stateMutability": "nonpayable",
      "type": "function"
    },
    {
      "inputs": [
        {
          "internalType": "uint256",
          "name": "itemId",
          "type": "uint256"
        },
        {
          "internalType": "uint256",
          "name": "pricePerUnit",
          "type": "uint256"
        }
      ],
      "name": "updatePrice",
      "outputs": [
        {
          "internalType": "uint256",
          "name": "",
          "type": "uint256"
        }
      ],
      "stateMutability": "nonpayable",
      "type": "function"
    },
    {
      "inputs": [],
      "name": "version",
      "outputs": [
        {
          "internalType": "uint8",
          "name": "",
          "type": "uint8"
        }
      ],
      "stateMutability": "view",
      "type": "function"
    }
  ],
  "bytecode": "0x60806040526006805460ff191660011790553480156200001e57600080fd5b506040516200319a3803806200319a833981016040819052620000419162000113565b6001600055600b80546001600160a01b0319166001600160a01b038381169190911790915560058054909116600160a01b6001600160601b03861602179055620000883390565b600480546001600160a01b0319166001600160a01b03929092169190911790556007620000b68382620002aa565b50600580546001600160a01b0319166001600160a01b039290921691909117905550620003769050565b634e487b7160e01b600052604160045260246000fd5b80516001600160a01b03811681146200010e57600080fd5b919050565b6000806000606084860312156200012957600080fd5b83516001600160601b03811681146200014157600080fd5b602085810151919450906001600160401b03808211156200016157600080fd5b818701915087601f8301126200017657600080fd5b8151818111156200018b576200018b620000e0565b604051601f8201601f19908116603f01168101908382118183101715620001b657620001b6620000e0565b816040528281528a86848701011115620001cf57600080fd5b600093505b82841015620001f35784840186015181850187015292850192620001d4565b60008684830101528097505050505050506200021260408501620000f6565b90509250925092565b600181811c908216806200023057607f821691505b6020821081036200025157634e487b7160e01b600052602260045260246000fd5b50919050565b601f821115620002a557600081815260208120601f850160051c81016020861015620002805750805b601f850160051c820191505b81811015620002a1578281556001016200028c565b5050505b505050565b81516001600160401b03811115620002c657620002c6620000e0565b620002de81620002d784546200021b565b8462000257565b602080601f831160018114620003165760008415620002fd5750858301515b600019600386901b1c1916600185901b178555620002a1565b600085815260208120601f198616915b82811015620003475788860151825594840194600190910190840162000326565b5085821015620003665787850151600019600388901b60f8161c191681555b5050505050600190811b01905550565b612e1480620003866000396000f3fe6080604052600436106101405760003560e01c806371329171116100b65780639b76a0d91161006f5780639b76a0d9146103f8578063b876130114610436578063bc197c8114610456578063e18ab47614610482578063e61a70c0146104ba578063f23a6e611461055057600080fd5b806371329171146103525780637f47c1671461037257806382367b2d146103925780639979c009146103b25780639979ef45146103c55780639add1bb3146103d857600080fd5b80631522a4a3116101085780631522a4a3146102465780632a55205a146102665780633738b55a146102a55780634fee13fc146102c757806354fd4d50146102e75780635a9cd0331461031357600080fd5b806301ffc9a71461014557806306fdde031461017a5780630aa7c8541461019c578063129f8dca146101d4578063150b7a0214610202575b600080fd5b34801561015157600080fd5b506101656101603660046124bf565b61057c565b60405190151581526020015b60405180910390f35b34801561018657600080fd5b5061018f61058d565b6040516101719190612539565b3480156101a857600080fd5b506005546101bc906001600160a01b031681565b6040516001600160a01b039091168152602001610171565b3480156101e057600080fd5b506101f46101ef36600461254c565b61061b565b604051908152602001610171565b34801561020e57600080fd5b5061022d61021d36600461264b565b630a85bd0160e11b949350505050565b6040516001600160e01b03199091168152602001610171565b34801561025257600080fd5b506101f46102613660046126c5565b610762565b34801561027257600080fd5b5061028661028136600461254c565b610e06565b604080516001600160a01b039093168352602083019190915201610171565b3480156102b157600080fd5b506102c56102c0366004612723565b610eb2565b005b3480156102d357600080fd5b506102c56102e236600461254c565b610fb5565b3480156102f357600080fd5b506006546103019060ff1681565b60405160ff9091168152602001610171565b34801561031f57600080fd5b5060055461033a90600160a01b90046001600160601b031681565b6040516001600160601b039091168152602001610171565b34801561035e57600080fd5b506102c561036d366004612768565b61118d565b34801561037e57600080fd5b506102c561038d366004612768565b6112db565b34801561039e57600080fd5b506101f46103ad36600461254c565b611372565b6102c56103c036600461254c565b61143f565b6102c56103d3366004612768565b611716565b3480156103e457600080fd5b506004546101bc906001600160a01b031681565b34801561040457600080fd5b506101f4610413366004612781565b600a60209081526000938452604080852082529284528284209052825290205481565b34801561044257600080fd5b506102c5610451366004612768565b611919565b34801561046257600080fd5b5061022d610471366004612842565b63bc197c8160e01b95945050505050565b34801561048e57600080fd5b506101f461049d3660046128f0565b600960209081526000928352604080842090915290825290205481565b3480156104c657600080fd5b5061053a6104d5366004612768565b600860208190526000918252604090912080546001820154600283015460038401546004850154600586015460068701546007880154979098015495976001600160a01b0395861697949693861695929491939092811690600160a01b900460ff168a565b6040516101719a99989796959493929190612932565b34801561055c57600080fd5b5061022d61056b3660046129b1565b63f23a6e6160e01b95945050505050565b6000610587826119e0565b92915050565b6007805461059a90612a1a565b80601f01602080910402602001604051908101604052809291908181526020018280546105c690612a1a565b80156106135780601f106105e857610100808354040283529160200191610613565b820191906000526020600020905b8154815290600101906020018083116105f657829003601f168201915b505050505081565b60008281526008602052604081206003015483906001600160a01b0316331461065f5760405162461bcd60e51b815260040161065690612a54565b60405180910390fd5b83600260008281526008602081905260409091200154600160a01b900460ff1660048111156106905761069061291c565b146106ad5760405162461bcd60e51b815260040161065690612a9f565b6000858152600860208190526040909120015485906001600160a01b0316156106e85760405162461bcd60e51b815260040161065690612ae8565b6106f28542612b41565b60008781526008602052604090819020600601829055517f57726d06d1daca46f05e5ae635548ca11afdbf89f3e1d07af30a7a89df075c6d9161074091899190918252602082015260400190565b60405180910390a1505050600092835250506008602052604090206006015490565b60008661076e81611a05565b8061077d575061077d81611a78565b6107e05760405162461bcd60e51b815260206004820152602e60248201527f54726164654875623a20436f6e7472616374206973206e6f7420656c6967696260448201526d6c6520666f72206c697374696e6760901b6064820152608401610656565b6000861161083f5760405162461bcd60e51b815260206004820152602660248201527f54726164654875623a205072696365206d757374206265206174206c6561737460448201526520312077656960d01b6064820152608401610656565b61084888611a78565b1561085257600194505b8315156001036108be57603c8310156108be5760405162461bcd60e51b815260206004820152602860248201527f54726164654875623a2054696d652063616e6e6f74206265206c65737320746860448201526730b710189036b4b760c11b6064820152608401610656565b6108c88888611aae565b915060006108d68989611cc4565b90506108e189611a05565b156109da57856001600160a01b038a1662fdd58e336040516001600160e01b031960e084901b1681526001600160a01b039091166004820152602481018c9052604401602060405180830381865afa158015610941573d6000803e3d6000fd5b505050506040513d601f19601f820116820180604052508101906109659190612b54565b10156109c85760405162461bcd60e51b815260206004820152602c60248201527f54726164654875623a20496e73756666696369656e742071756e61746974792060448201526b666f72206c697374696e672160a01b6064820152608401610656565b6109d58933308b8a611dbc565b610abb565b336040516331a9108f60e11b8152600481018a90526001600160a01b03918216918b1690636352211e90602401602060405180830381865afa158015610a24573d6000803e3d6000fd5b505050506040513d601f19601f82011682018060405250810190610a489190612b6d565b6001600160a01b031614610aad5760405162461bcd60e51b815260206004820152602660248201527f54726164654875623a2053656e64657220646f6573206e6f74206f776e20746860448201526565206974656d60d01b6064820152608401610656565b610abb8933308b6001611dbc565b600185151514610c4a576040518061014001604052808481526020018a6001600160a01b03168152602001898152602001610af33390565b6001600160a01b0316815260208101899052604081018890526000606082018190526080820181905260a082015260c0016001905260008481526008602081815260409283902084518155908401516001820180546001600160a01b03199081166001600160a01b039384161790915593850151600283015560608501516003830180548616918316919091179055608085015160048084019190915560a0860151600584015560c0860151600684015560e0860151600784015561010086015193830180549586169490921693841782556101208601519294929391926001600160a81b03191690911790600160a01b908490811115610bf657610bf661291c565b0217905550899150506001600160a01b038a16847fd90c03e7bfd75512b91d0f3b713ef47c0666e00f5c30a2ac08a6d30514f8996884338c604051610c3d93929190612b8a565b60405180910390a4610dfa565b6000610c568542612b41565b90506000610c64888a612bb8565b90506040518061014001604052808681526020018c6001600160a01b031681526020018b8152602001610c943390565b6001600160a01b03168152602081018b9052604081018a90526060810184905260808101839052600060a082015260c0016002905260008681526008602081815260409283902084518155908401516001820180546001600160a01b03199081166001600160a01b039384161790915593850151600283015560608501516003830180548616918316919091179055608085015160048084019190915560a0860151600584015560c0860151600684015560e0860151600784015561010086015193830180549586169490921693841782556101208601519294929391926001600160a81b03191690911790600160a01b908490811115610d9757610d9761291c565b0217905550905050610da63390565b6001600160a01b03168a8c6001600160a01b03167f39ed0bb0416b400d0f3fa4402ca48e2e9fbc9042ec88cf4a341cc715f14de90488878e88604051610def9493929190612bcf565b60405180910390a450505b50509695505050505050565b60008281526002602090815260408083208151808301909252546001600160a01b038116808352600160a01b9091046001600160601b0316928201929092528291610e7b5750604080518082019091526001546001600160a01b0381168252600160a01b90046001600160601b031660208201525b602081015160009061271090610e9a906001600160601b031687612bb8565b610ea49190612bfb565b915196919550909350505050565b600b546001600160a01b03166324d7806c336040516001600160e01b031960e084901b1681526001600160a01b039091166004820152602401602060405180830381865afa158015610f08573d6000803e3d6000fd5b505050506040513d601f19601f82011682018060405250810190610f2c9190612c1d565b610f785760405162461bcd60e51b815260206004820181905260248201527f54726164654875623a2055736572206973206e6f7420617574686f72697a65646044820152606401610656565b600580546001600160601b03909316600160a01b026001600160a01b0393841617905560048054919092166001600160a01b031991909116179055565b60008281526008602052604090206003015482906001600160a01b03163314610ff05760405162461bcd60e51b815260040161065690612a54565b82600160008281526008602081905260409091200154600160a01b900460ff1660048111156110215761102161291c565b1461103e5760405162461bcd60e51b815260040161065690612c3a565b6000848152600860205260409020600101546001600160a01b0316603c8410156110c15760405162461bcd60e51b815260206004820152602e60248201527f54726164654875623a2054696d65722063616e6e6f74206265206c657373207460448201526d68616e204f6e65204d696e75746560901b6064820152608401610656565b600085815260086020526040812060058101546004909101546110e49190612bb8565b905060006110f28642612b41565b6000888152600860208190526040822060068101849055908101805460ff60a01b1916600160a11b1790556002015491925061112e8583611cc4565b9050336001600160a01b031682866001600160a01b03167f39ed0bb0416b400d0f3fa4402ca48e2e9fbc9042ec88cf4a341cc715f14de9048c85898e60405161117a9493929190612bcf565b60405180910390a4505050505050505050565b60008181526008602052604090206003015481906001600160a01b031633146111c85760405162461bcd60e51b815260040161065690612a54565b6000828152600860208190526040909120015482906001600160a01b0316156112035760405162461bcd60e51b815260040161065690612ae8565b60008381526008602052604090206001810154600382015460028301546005909301546001600160a01b039283169391909216916112448430858585611dbc565b6000878152600860208190526040822001805460ff60a01b1916600160a21b1790556112708584611cc4565b60008981526008602052604090206002810154600190910154919250906001600160a01b03167fae1e13d4bf13a666a5162ff2a286b302074d0ea0cd82ecb2c4f27a4824738bda8a84336040516112c993929190612c7f565b60405180910390a35050505050505050565b80600260008281526008602081905260409091200154600160a01b900460ff16600481111561130c5761130c61291c565b146113295760405162461bcd60e51b815260040161065690612a9f565b60008281526008602052604090206003015482906001600160a01b031633146113645760405162461bcd60e51b815260040161065690612a54565b61136d83611ec0565b505050565b60008281526008602052604081206003015483906001600160a01b031633146113ad5760405162461bcd60e51b815260040161065690612a54565b6000848152600860208190526040909120015484906001600160a01b0316156113e85760405162461bcd60e51b815260040161065690612ae8565b60008581526008602090815260409182902060040186905581518781529081018690527f945c1c4e99aa89f648fbfe3df471b916f719e16d960fcec0737d4d56bd696838910160405180910390a150919392505050565b81600160008281526008602081905260409091200154600160a01b900460ff1660048111156114705761147061291c565b1461148d5760405162461bcd60e51b815260040161065690612c3a565b60008381526008602081815260408084208151610140810183528154815260018201546001600160a01b03908116948201949094526002820154928101929092526003810154831660608301526004808201546080840152600582015460a0840152600682015460c0840152600782015460e08401529381015492831661010083015290929091610120840191600160a01b90910460ff16908111156115355761153561291c565b60048111156115465761154661291c565b8152505090508060a001518311156115b25760405162461bcd60e51b815260206004820152602960248201527f54726164654875623a2067726561746572207175616e74697479207468616e20604482015268617661696c61626c6560b81b6064820152608401610656565b8281608001516115c29190612bb8565b34146116225760405162461bcd60e51b815260206004820152602960248201527f54726164654875623a20506179204d61726b657420507269636520746f2062756044820152681e481d1a194813919560ba1b6064820152608401610656565b600061163682602001518360400151611cc4565b90506116458260200151611a05565b1561169d576116568534338761202f565b838260a001516116669190612cb0565b60a0830181905260000361169857600085815260086020819052604090912001805460ff60a01b1916600360a01b1790555b6116ae565b600193506116ae853433600161202f565b816040015182602001516001600160a01b0316867fb80f6fa5d230e7805d7cf6cfd37e8ef8e49c0a6431aa394ccbe4bc264d6af8b68486606001516116f03390565b88608001518b604051611707959493929190612cc3565b60405180910390a45050505050565b80600260008281526008602081905260409091200154600160a01b900460ff1660048111156117475761174761291c565b146117645760405162461bcd60e51b815260040161065690612a9f565b60008281526008602052604090206006015442106117d25760405162461bcd60e51b815260206004820152602560248201527f54726164654875623a2054696d65206c696d697420686173206265656e2072656044820152641858da195960da1b6064820152608401610656565b60008281526008602052604090206007015434116118445760405162461bcd60e51b815260206004820152602960248201527f54726164654875623a2076616c7565206c657373207468616e2074686520686960448201526819da195cdd08109a5960ba1b6064820152608401610656565b6000828152600860208190526040909120908101546007909101546001600160a01b039091169081156118a9576040516001600160a01b0383169082156108fc029083906000818181858888f193505050501580156118a7573d6000803e3d6000fd5b505b60008481526008602081815260409283902091820180546001600160a01b0319163390811790915534600790930183905583518881529182019290925290917fbfbf2db1f7880e9487cbceeb181c4dce363d0ad1b6e73f5aa494ffb5d9191496910160405180910390a250505050565b80600260008281526008602081905260409091200154600160a01b900460ff16600481111561194a5761194a61291c565b146119675760405162461bcd60e51b815260040161065690612a9f565b6000828152600860205260409020600601544210156119d35760405162461bcd60e51b815260206004820152602260248201527f54726164654875623a2041756374696f6e206973207374696c6c2072756e6e696044820152616e6760f01b6064820152608401610656565b6119dc82611ec0565b5050565b60006001600160e01b0319821663152a902d60e11b148061058757506105878261239f565b6040516301ffc9a760e01b8152636cdb3d1360e11b60048201526000906001600160a01b038316906301ffc9a7906024015b602060405180830381865afa158015611a54573d6000803e3d6000fd5b505050506040513d601f19601f820116820180604052508101906105879190612c1d565b6040516301ffc9a760e01b81526380ac58cd60e01b60048201526000906001600160a01b038316906301ffc9a790602401611a37565b6000611ab983611a05565b15611bd757336000908152600a602090815260408083206001600160a01b0387168452825280832085845290915281205490819003611b3857611b00600380546001019055565b600354336000908152600a602090815260408083206001600160a01b0389168452825280832087845290915290208190559150611bd1565b8015801590611bab5750600360008281526008602081905260409091200154600160a01b900460ff166004811115611b7257611b7261291c565b1480611bab5750600460008281526008602081905260409091200154600160a01b900460ff166004811115611ba957611ba961291c565b145b15611bb857809150611bd1565b6040516351e30c8f60e11b815260040160405180910390fd5b50610587565b6001600160a01b038316600090815260096020908152604080832085845290915281205490819003611c4157611c11600380546001019055565b6003546001600160a01b038516600090815260096020908152604080832087845290915290208190559150611cbd565b8015801590611cb45750600360008281526008602081905260409091200154600160a01b900460ff166004811115611c7b57611c7b61291c565b1480611cb45750600460008281526008602081905260409091200154600160a01b900460ff166004811115611cb257611cb261291c565b145b15611bb8578091505b5092915050565b6060611ccf83611a05565b15611d48576040516303a24d0760e21b8152600481018390526001600160a01b03841690630e89341c90602401600060405180830381865afa158015611d19573d6000803e3d6000fd5b505050506040513d6000823e601f3d908101601f19168201604052611d419190810190612d03565b9050610587565b60405163c87b56dd60e01b8152600481018390526001600160a01b0384169063c87b56dd90602401600060405180830381865afa158015611d8d573d6000803e3d6000fd5b505050506040513d6000823e601f3d908101601f19168201604052611db59190810190612d03565b9392505050565b611dc585611a05565b15611e4e57604051637921219560e11b81526001600160a01b0385811660048301528481166024830152604482018490526064820183905260a06084830152600060a483015286169063f242432a9060c401600060405180830381600087803b158015611e3157600080fd5b505af1158015611e45573d6000803e3d6000fd5b50505050611eb9565b6040516323b872dd60e01b81526001600160a01b0385811660048301528481166024830152604482018490528616906323b872dd90606401600060405180830381600087803b158015611ea057600080fd5b505af1158015611eb4573d6000803e3d6000fd5b505050505b5050505050565b60008181526008602052604081206003810154600782015460018301546002909301546001600160a01b039283169491939092169190611f008383611cc4565b600087815260086020819052604090912001549091506001600160a01b03161561201e57611f2d83611a05565b15611f685760008681526008602081905260409091206005810154910154611f6290889087906001600160a01b03168461202f565b50611f93565b60008681526008602081905260409091200154611f9390879086906001600160a01b0316600161202f565b6000868152600860208190526040918290200154905183916001600160a01b03808716928a927fbbdc0e71c33a588413b2b227163f057b0a3d3f23eb550873ae266121fbe1528192611fec9288928d9216908c90612d7a565b60405180910390a46000868152600860208190526040822090810180546001600160a01b031916905560070155612027565b612027866123d4565b505050505050565b612037612466565b60008481526008602081815260408084208151610140810183528154815260018201546001600160a01b03908116948201949094526002820154928101929092526003810154831660608301526004808201546080840152600582015460a0840152600682015460c0840152600782015460e08401529381015492831661010083015290929091610120840191600160a01b90910460ff16908111156120df576120df61291c565b60048111156120f0576120f061291c565b81525050905061210b81602001513085846040015186611dbc565b60008061211b8360200151611a05565b156121d6576005546103e89061214190600160a01b90046001600160601b031688612bb8565b61214b9190612bfb565b91506121578287612cb0565b6004546040519192506001600160a01b03169083156108fc029084906000818181858888f19350505050158015612192573d6000803e3d6000fd5b5082606001516001600160a01b03166108fc829081150290604051600060405180830381858888f193505050501580156121d0573d6000803e3d6000fd5b5061238c565b6005546103e8906121f790600160a01b90046001600160601b031688612bb8565b6122019190612bfb565b915061220d8287612cb0565b905060008084602001516001600160a01b0316632a55205a8660400151856040518363ffffffff1660e01b8152600401612251929190918252602082015260400190565b6040805180830381865afa15801561226d573d6000803e3d6000fd5b505050506040513d601f19601f820116820180604052508101906122919190612db0565b909250905060006122a28285612cb0565b6004546040519192506001600160a01b03169086156108fc029087906000818181858888f193505050501580156122dd573d6000803e3d6000fd5b506040516001600160a01b0384169083156108fc029084906000818181858888f19350505050158015612314573d6000803e3d6000fd5b5085606001516001600160a01b03166108fc829081150290604051600060405180830381858888f19350505050158015612352573d6000803e3d6000fd5b50505060008881526008602081905260409091206003810180546001600160a01b031916905501805460ff60a01b1916600360a01b179055505b5050506123996001600055565b50505050565b60006001600160e01b03198216630271189760e51b148061058757506301ffc9a760e01b6001600160e01b0319831614610587565b6000818152600860208190526040822060068101839055908101805460ff60a01b1916600160a01b179055600181015460028201546004909201546001600160a01b03909116926124258484611cc4565b9050826001600160a01b038516867fd90c03e7bfd75512b91d0f3b713ef47c0666e00f5c30a2ac08a6d30514f8996884338760405161170793929190612b8a565b6002600054036124b85760405162461bcd60e51b815260206004820152601f60248201527f5265656e7472616e637947756172643a207265656e7472616e742063616c6c006044820152606401610656565b6002600055565b6000602082840312156124d157600080fd5b81356001600160e01b031981168114611db557600080fd5b60005b838110156125045781810151838201526020016124ec565b50506000910152565b600081518084526125258160208601602086016124e9565b601f01601f19169290920160200192915050565b602081526000611db5602083018461250d565b6000806040838503121561255f57600080fd5b50508035926020909101359150565b6001600160a01b038116811461258357600080fd5b50565b634e487b7160e01b600052604160045260246000fd5b604051601f8201601f1916810167ffffffffffffffff811182821017156125c5576125c5612586565b604052919050565b600067ffffffffffffffff8211156125e7576125e7612586565b50601f01601f191660200190565b600082601f83011261260657600080fd5b8135612619612614826125cd565b61259c565b81815284602083860101111561262e57600080fd5b816020850160208301376000918101602001919091529392505050565b6000806000806080858703121561266157600080fd5b843561266c8161256e565b9350602085013561267c8161256e565b925060408501359150606085013567ffffffffffffffff81111561269f57600080fd5b6126ab878288016125f5565b91505092959194509250565b801515811461258357600080fd5b60008060008060008060c087890312156126de57600080fd5b86356126e98161256e565b9550602087013594506040870135935060608701359250608087013561270e816126b7565b8092505060a087013590509295509295509295565b6000806040838503121561273657600080fd5b82356001600160601b038116811461274d57600080fd5b9150602083013561275d8161256e565b809150509250929050565b60006020828403121561277a57600080fd5b5035919050565b60008060006060848603121561279657600080fd5b83356127a18161256e565b925060208401356127b18161256e565b929592945050506040919091013590565b600082601f8301126127d357600080fd5b8135602067ffffffffffffffff8211156127ef576127ef612586565b8160051b6127fe82820161259c565b928352848101820192828101908785111561281857600080fd5b83870192505b848310156128375782358252918301919083019061281e565b979650505050505050565b600080600080600060a0868803121561285a57600080fd5b85356128658161256e565b945060208601356128758161256e565b9350604086013567ffffffffffffffff8082111561289257600080fd5b61289e89838a016127c2565b945060608801359150808211156128b457600080fd5b6128c089838a016127c2565b935060808801359150808211156128d657600080fd5b506128e3888289016125f5565b9150509295509295909350565b6000806040838503121561290357600080fd5b823561290e8161256e565b946020939093013593505050565b634e487b7160e01b600052602160045260246000fd5b8a81526001600160a01b038a81166020830152604082018a905288811660608301526080820188905260a0820187905260c0820186905260e08201859052831661010082015261014081016005831061299b57634e487b7160e01b600052602160045260246000fd5b826101208301529b9a5050505050505050505050565b600080600080600060a086880312156129c957600080fd5b85356129d48161256e565b945060208601356129e48161256e565b93506040860135925060608601359150608086013567ffffffffffffffff811115612a0e57600080fd5b6128e3888289016125f5565b600181811c90821680612a2e57607f821691505b602082108103612a4e57634e487b7160e01b600052602260045260246000fd5b50919050565b6020808252602b908201527f54726164654875623a2053656e646572206973206e6f742073656c6c6572206f60408201526a662074686973206974656d60a81b606082015260800190565b60208082526029908201527f54726164654875623a205468652061756374696f6e20686173206e6f74207374604082015268185c9d1959081e595d60ba1b606082015260800190565b60208082526023908201527f5472616465487562203a2041756374696f6e206973207374696c6c2072756e6e604082015262696e6760e81b606082015260800190565b634e487b7160e01b600052601160045260246000fd5b8082018082111561058757610587612b2b565b600060208284031215612b6657600080fd5b5051919050565b600060208284031215612b7f57600080fd5b8151611db58161256e565b606081526000612b9d606083018661250d565b6001600160a01b039490941660208301525060400152919050565b808202811582820484141761058757610587612b2b565b848152608060208201526000612be8608083018661250d565b6040830194909452506060015292915050565b600082612c1857634e487b7160e01b600052601260045260246000fd5b500490565b600060208284031215612c2f57600080fd5b8151611db5816126b7565b60208082526025908201527f54726164654875623a204d61726b6574206974656d206973206e6f7420666f726040820152642073616c6560d81b606082015260800190565b838152606060208201526000612c98606083018561250d565b905060018060a01b0383166040830152949350505050565b8181038181111561058757610587612b2b565b60a081526000612cd660a083018861250d565b6001600160a01b039687166020840152949095166040820152606081019290925260809091015292915050565b600060208284031215612d1557600080fd5b815167ffffffffffffffff811115612d2c57600080fd5b8201601f81018413612d3d57600080fd5b8051612d4b612614826125cd565b818152856020838501011115612d6057600080fd5b612d718260208301602086016124e9565b95945050505050565b608081526000612d8d608083018761250d565b6001600160a01b0395861660208401529390941660408201526060015292915050565b60008060408385031215612dc357600080fd5b8251612dce8161256e565b602093909301519294929350505056fea26469706673582212205c0880058e2423ea084254f706032c05231538f10542642fb55d109cc40caa3964736f6c63430008110033",
  "linkReferences": {},
  "deployedLinkReferences": {}
}